:100000000C949F020C94E3020C94E3020C94E30220
:100010000C94E3020C94E3020C94E3020C94E302CC
:100020000C94E3020C94E3020C94070C0C94D90C8E
:100030000C944B1A0C94E3020C94E3020C94E3022C
:100040000C94E3020C94E3020C94E3020C94E3029C
:100050000C94E3020C94B21A0C94E3020C94E302A5
:100060000C94E3020C94E3020C94E3020C94E3027C
:100070000C94E3020C94E3020C94E3020C94E3026C
:100080000C94E3020C94E3020C94E3020C94E3025C
:100090000C94E3020C94E3020C94E3020C94E3024C
:1000A0000C94E3020C94E3020C94E3023E0D600D09
:1000B0004B0E600D4B0EA20DC50D4B0E1A0E2D0EE4
:1000C00012111211411141118111E712E712E712C9
:1000D000A311E7124A124A12B412BC12E712E2123A
:1000E00057125712571257125712571257125712C8
:1000F00057125712571257125712571257125712B8
:10010000671277127E1285128F122BA72CA42CA3B4
:100110002832290014001A000800150017001C00DE
:1001200018000C00120013002A0000200400160022
:10013000070009000A000B000D000E000F0033003D
:100140003400E1001D001B0006001900050011002D
:1001500010003600370038000320E000E300E20022
:1001600001200000000000000220E6006500000001
:10017000E40000000000000000000000000000009B
:10018000000000000000000000000000000000006F
:10019000000000000000000000000000000000005F
:1001A000000000000000000000000000000000004F
:1001B000000000000000000000000000000000003F
:1001C000000000000000000000000000000000002F
:1001D000000000000000000000000000000000001F
:1001E000000000000000000000000000000000000F
:1001F00000000000000000000000000000000000FF
:1002000000000000000000000000000000000000EE
:1002100000000000000000000000000000000000DE
:1002200000000000000000000000000000000000CE
:10023000000035001E001F002000210022002300C6
:1002400024002500260027004C00010001000100C9
:1002500001000100010001002D002E002F003000E0
:100260003100010044004500680069006A006B002D
:100270006C006D004B006F002800010001000100C0
:10028000010000000000000001004A004E000000D4
:100290004D0035021E021F0220022102220223020B
:1002A00024022502260227022A0001000100010083
:1002B00048000100010001002D022E022F02300231
:1002C000310201003A003B003C003D003E003F008F
:1002D00040004100420043002800010001000100ED
:1002E00001000000000000000100AB00A8000000B9
:1002F000AE00000000000000000000000000000050
:1003000000000000000000000000000000000000ED
:1003100000000000000000000000000000000000DD
:1003200000000000000000000000000000000000CD
:1003300000000000000000000000000000000000BD
:1003400000000000000000000000000000000000AD
:10035000000000000000000000000000000000009D
:10036000000000000000000000000000000000008D
:10037000000000000000000000000000000000007D
:10038000000000000000000000000000000000006D
:10039000000000000000000000000000000000005D
:1003A000000000000000000000000000000000004D
:1003B00000002900B200B500B100B3000100010047
:1003C000010001000100460001000100835001000E
:1003D00001000050010001000100010001000100C6
:1003E0000100010001000100010001000100010005
:1003F000010001005200010028000100010001007D
:100400000100000000000000010050005100000049
:100410004F000A0374007600340034000000060325
:100420004D004500000004030904090254000301C3
:1004300000A0FA09040000010301010009211101D3
:100440000001223F000705810308000A090401009A
:1004500001030000000921110100012236000705F7
:10046000820308000A0904020001030000000921B8
:100470001101000122390007058303100001120158
:10048000100100000008EDFE60604104010200015F
:1004900005010906A101050719E029E71500250155
:1004A0009508750181020508190129059505750151
:1004B000910295017503910105071900297715002F
:1004C0002501957875018102C005010980A101858A
:1004D0000216010026B7001A01002AB70075109510
:1004E000018100C0050C0901A10185031601002648
:1004F0009C021A01002A9C02751095018100C0051A
:10050000010906A101050719E029E7150025019554
:1005100008750181029501750881010508190129F5
:10052000059505750191029501750391010507195E
:100530000029FF150025FF950675088100C01124CC
:100540001FBECFEFDAE0DEBFCDBF04B603FE24C08E
:100550008091D8019091D901A091DA01B091DB018D
:100560008730904BA740B04BB9F41092D80110924D
:10057000D9011092DA011092DB0114BE84B7877F93
:1005800084BF88E10FB6F8948093600010926000F9
:100590000FBEE0E0F8E3099511E0A0E0B1E0ECE087
:1005A000FDE302C005900D92AE32B107D9F711E01C
:1005B000AEE2B1E001C01D92A83DB107E1F70E9493
:1005C0004F090C94841E0C94000080912F018F5FC2
:1005D000883018F480932F0102C010922F0190915F
:1005E0002F0180912E01981718F4229A2A9A0895C3
:1005F00022982A98089522982A980C94B01D8093E6
:100600002E01089508950895089508950E94FB020B
:100610000C9403030E9404030C94E5020C9405035C
:1006200081E008950C94100308950F931F93CF93C6
:10063000DF93EC0108811981C8010E947C18B80180
:100640000E94B0038C01BE010E941203882309F4AA
:100650007AC08A818823C9F180913B0181111EC033
:10066000043180E5180789F50E94140381E0809326
:100670003B010E947D1A90933A01809339011092B8
:10068000320110923401109233011092360110920F
:100690003501109238011092370155C0809139010F
:1006A00090913A010E94891A883C910570F48091DA
:1006B0003201E82FF0E0EE0FFF1FED5CFE4F1183DB
:1006C00000838F5F809332013EC0043880E51807B5
:1006D00021F005381045A1F02AC08A81882321F035
:1006E0001092300182E012C080913001811106C069
:1006F00086E20E94B00F86E20E94781082E014C069
:100700008A81882331F01092310180E20E94C71063
:100710001AC080913101811106C087E20E94B00F9A
:1007200087E20E94781080E20E94CE100CC081E027
:100730008093300180933101CE01DF91CF911F91E1
:100740000F910C940E0380E0DF91CF911F910F91D8
:1007500008950C9406030C940A0380E090E0089539
:100760009CE0799FF001112490E3899FE00DF11D39
:100770001124E60FF11DEE0FFF1FEE5EFE4F859177
:1007800094910895880F991F86579040FC01859198
:1007900094910895880F991F865F9E4FFC01859163
:1007A000949108950F931F93CF93DF93EC018115DC
:1007B00021E39207A0F5811530E3930708F0D7C035
:1007C000883E9105D8F4803E910508F06FC0883AC4
:1007D000910578F4853A910508F06AC08130910559
:1007E00009F4F4C108F4EFC18430910508F05EC04B
:1007F000EAC18B3B910508F466C0E5C1C11580E2F2
:10080000D80708F0AFC0C11591E0D90708F04EC075
:10081000C03FD10508F4D7C18E01106518C28038D9
:1008200020E5920700F5803730E5930708F0A3C074
:10083000C11580E5D80709F4ACC050F4CE0190543E
:1008400080319F4008F0BFC18E011F70106AFFC148
:10085000C13030E5D30709F4AAC0C43180E5D80718
:1008600008F4ABC0B0C1C33890E5D90709F48EC015
:1008700050F4C13830E5D30709F482C008F083C0D2
:1008800000E011EDE4C1C03191E5D90708F49BC146
:10089000C11527E5D20708F432C1CE019057811562
:1008A000904108F090C18E011F708BC18E01CFC1A5
:1008B000853A910509F48DC1863A910509F48CC1F8
:1008C00003E810E4C4C1883A910509F488C1893A63
:1008D000910509F487C18A3A910509F486C18B3ADA
:1008E000910509F485C18C3A910509F484C18D3ACA
:1008F000910509F483C1803B910509F482C18E3AC8
:10090000910509F481C18F3A910509F480C1813BB9
:10091000910509F47FC1823B910509F47EC1833BB7
:10092000910509F47DC1843B910509F47CC1853BA7
:10093000910509F47BC1863B910509F47AC1873B97
:10094000910509F479C1883B910509F478C1893B87
:10095000910509F477C18A3B910509F076C10AE255
:1009600016E475C1CE019F700E94CA0371C18C014B
:100970001127106C6CC18C010F701127146D67C1A9
:1009800000E010ED64C100E012ED61C100E013ED84
:100990005EC10E9451138FEF94E32CE08150904090
:1009A0002040E1F700C000000E94D71A50C180919A
:1009B000C20181608093C2014AC10E94891C8111D9
:1009C00002C00E946A1C0E94A61C90E09093D7016E
:1009D0008093D601C23030E5D30721F48091D6014F
:1009E000816086C0C43080E5D80721F48091D601AB
:1009F00082607EC0C63090E5D90721F48091D6018F
:100A0000846076C0C83020E5D20719F48091D60101
:100A100027C0CA3030E5D30721F48091D601806128
:100A200067C0CC3080E5D80721F48091D601806280
:100A30005FC0CE3090E5D90721F48091D601806463
:100A400057C0C03120E5D20721F48091D6018068DB
:100A50004FC0C23130E5D30729F48091D6018460BC
:100A6000886046C0C33080E5D80721F48091D60164
:100A70008E7F3EC0C53090E5D90721F48091D60124
:100A80008D7F36C0C73020E5D20721F48091D60192
:100A90008B7F2EC0C93030E5D30719F48091D60181
:100AA00026C0CB3080E5D80721F48091D6018F7E17
:100AB0001FC0CD3090E5D90721F48091D6018F7DFC
:100AC00017C0CF3020E5D20721F48091D6018F7B6B
:100AD0000FC0C13130E5D30721F48091D6018F7763
:100AE00007C0C331D04531F48091D6018B7F877F19
:100AF0008093D6018091D6010E94AA1CA8C08D2F98
:100B000099278F70992781309105E9F48E01037040
:100B100011279C0102C0220F331F0A95E2F78901B9
:100B20001C68CE01E4E0880F991FEA95E1F7882759
:100B30009370082B192BF3E0CC0FDD1FFA95E1F72A
:100B4000C076DD272CC08230910529F41C2F0027A8
:100B5000016F106A7CC08330910561F4CE0183700F
:100B6000992701E010E002C0000F111F8A95E2F7FB
:100B70001C680EC084309105A9F4CE0183709927BA
:100B800001E010E002C0000F111F8A95E2F71A6819
:100B900063E0CC0FDD1F6A95E1F7C07ED7700C2BA8
:100BA0001D2B55C08530910529F41C2F0027046F9B
:100BB000106A4DC0069709F04AC0CF71DD271C2F7F
:100BC0000027106244C000E010E041C001E010E0E6
:100BD0003EC001E810E43BC002E810E438C002EE79
:100BE00014E435C009EE14E432C00AEE14E42FC058
:100BF00005EB14E42CC006EB14E429C007EB14E465
:100C000026C00CEC14E423C00DEC14E420C003E86F
:100C100015E41DC00AE815E41AC002E915E417C07E
:100C200004E915E414C001E216E411C003E216E47D
:100C30000EC004E216E40BC005E216E408C006E2AA
:100C400016E405C007E216E402C000E014E4C8019F
:100C5000DF91CF911F910F9108959CE0799FF00152
:100C6000112490E3899FE00DF11D1124E60FF11D81
:100C7000EE0FFF1FEE5EFE4F85919491803E910531
:100C8000E0F4803C910558F58133910509F46FC07B
:100C900048F48932910509F463C08A32910509F458
:100CA0006DC072C089339105E9F082389105D1F0A9
:100CB0008533910509F44DC067C0833E910581F1EC
:100CC00038F4803E9105B9F0823E9105D9F05CC0C0
:100CD000863E910561F1873E9105A1F155C00E94C4
:100CE000C20308952091D60120FD02C021FF4CC00F
:100CF00080EE90E049C08091D60180FFF9CF89E372
:100D000090E042C08091D60182FF0EC08091D60152
:100D100084FF03C080E090E037C083EE90E034C0F1
:100D20008091D60182FFF2CF82EE90E02DC08091BB
:100D3000D60183FF0BC08091D60184FDEBCF87EEF7
:100D400090E022C08091D60183FFF5CF86EE90E03F
:100D50001BC08091D60185FF07C089E290E014C0D6
:100D60008091D60185FFF9CF85E390E00DC0809199
:100D7000D60186FF07C08AE290E006C08091D601C6
:100D800086FFF9CF81E390E00E94D2030895089591
:100D90000C94C706E82FF0E0E55EFE4F8081E82F57
:100DA000EF70F0E0282F22952F7081E090E0022E66
:100DB00001C0880F0A94EAF780A308950F931F9348
:100DC000CF93DF9385B7806885BF85B7806885BF7F
:100DD000C3E0D0E001E010E0FE01E55EFE4F80815F
:100DE000E82FEF70F0E021A182958F70A80102C07A
:100DF000440F551F8A95E2F7242B21A38C2F0E94C4
:100E0000CA06219748F78BE090E041E050E0FC01F2
:100E1000E15FFE4F2081E22FEF70F0E062A12295AA
:100E20002F70DA0102C0AA0FBB1F2A95E2F76A2BC6
:100E300062A3019760F7DF91CF911F910F910C94FE
:100E4000A903EF92FF920F931F93CF93DF93C4E414
:100E5000D1E083E0E82E01E010E095E0F92E8E2D40
:100E60000E94CA062BE030E040E050E0F901E15F6B
:100E7000FE4F8081E82FEF70F0E060A170E0829576
:100E80008F7002C0759567958A95E2F760FD09C07D
:100E9000B801022E02C0660F771F0A94E2F7462BB4
:100EA000572B2150310910F73A912A912417350711
:100EB00021F059834883F09200018E2D0E94CA06CA
:100EC000EA949FEFE912CBCF8091000187FD2CC0FF
:100ED0008150809300018F3F09F5809142019091EC
:100EE000430190934B0180934A018091400190917E
:100EF0004101909349018093480180913E01909176
:100F00003F01909347018093460180913C0190916D
:100F10003D01909345018093440106C08FE99FE015
:100F20000197F1F700C000000E94AB0381E0DF9160
:100F3000CF911F910F91FF90EF900895E82FF0E06F
:100F4000EE0FFF1FEC5BFE4F8081918108950895A5
:100F50001F93CF93DF93CCE4D1E010E09A918A9174
:100F60000E94F519180F81E0C434D807B9F7812F12
:100F7000DF91CF911F91089580915C0108950895AC
:100F8000CF93DF9300D01F92CDB7DEB72091CD0174
:100F9000243021F523E029839B838A8382E0809398
:100FA000E9008FEF9091E800815095FD06C095ED26
:100FB0009A95F1F700008111F5CF8091E80085FF47
:100FC0000DC040E050E063E070E0CE0101960E9469
:100FD000FA098091E8008E778093E8000F900F90D7
:100FE0000F90DF91CF910895CF93DF9300D01F92A0
:100FF000CDB7DEB72091CD01243019F522E0298349
:101000009B838A832093E9008FEF9091E8008150C1
:1010100095FD06C095ED9A95F1F700008111F5CF89
:101020008091E80085FF0DC040E050E063E070E093
:10103000CE0101960E94FA098091E8008E77809394
:10104000E8000F900F900F90DF91CF910895CF930C
:10105000DF93EC018091CD01843009F047C080918D
:101060000B018823E1F080910C018823C1F083E01B
:101070008093E9008FEF9091E800815095FD06C0C4
:1010800095E19A95F1F700008111F5CF8091E80084
:1010900085FF2CC040E050E060E170E017C081E0C7
:1010A0008093E9008FEF9091E800815095FD06C094
:1010B00095ED9A95F1F700008111F5CF8091E80048
:1010C00085FF14C040E050E068E070E0CE010E946F
:1010D000FA098091E8008E778093E80080E1FE01B4
:1010E000ACE4B1E001900D928A95E1F7DF91CF91E8
:1010F00008958091CC01811109C00E948C0B0E943F
:10110000E90B8091E20084608093E20008951092E0
:10111000CC010895089508950C94401A42E061ECC2
:1011200081E00E94060B42E061EC82E00E94060B27
:1011300042E161EC83E00C94060B8091CF01833097
:1011400009F455C030F4813071F0823009F48EC05A
:1011500008958A3009F47AC08B3009F460C0893070
:1011600009F09CC020C08091CE01813A09F096C060
:101170008091E800877F8093E8008091D201909170
:10118000D301892B21F060E080E090E003C060E1B2
:101190008CE491E070E00E94430A8091E8008B7734
:1011A0008093E80008958091CE01813209F076C0E5
:1011B0008091D2019091D301009719F0029709F024
:1011C0006DC08091E800877F8093E8008091E800FF
:1011D00082FD05C08091CD018111F8CF5FC0809163
:1011E000F10080935C018091E8008B7753C080917F
:1011F000CE01813A09F052C08091D2019091D30181
:10120000892B09F04BC08091E800877F8093E8002C
:101210008091E80080FFFCCF80910B0136C0809167
:10122000CE018132D9F58091D2019091D301892BE1
:10123000A9F58091E800877F8093E8000E943B0B2E
:101240008091D00180930B010C9451138091CE01B9
:10125000813221F58091E800877F8093E8000E9429
:101260003B0B8091D10180935D0108958091CE0167
:10127000813AA1F48091E800877F8093E800809113
:10128000E80080FFFCCF80915D018093F1008091A8
:10129000E8008E778093E8000C943B0B089584B7A8
:1012A000877F84BF88E10FB6F89480936000109226
:1012B00060000FBE90E080E80FB6F8948093610064
:1012C000909361000FBE0E94CA0E0E948C0B0E9478
:1012D000E90B8091E20084608093E20078940E94A0
:1012E000640E0E94CC0E81E091E00E94810E8091FC
:1012F000CD01853069F40E94011A8091CB018823C9
:10130000B1F30E942F1A882391F30E94E409EFCFD2
:101310000E94D40EECCF292F332723303105A9F0BA
:101320006CF42130310509F442C02230310509F056
:1013300043C084E590E02AE234E042C02132310526
:10134000C9F02232310519F137C099278130910552
:1013500041F08230910541F0892B71F5E6E2F4E02D
:1013600005C0EEE1F4E002C0E2E1F4E0849190E037
:101370009F0126C0633000F5E62FF0E0EE0FFF1F5F
:10138000E85DFE4F2081318189E090E019C0633033
:1013900098F4E62FF0E0DF01AA0FBB1FAE5DBE4F51
:1013A0002D913C91E15EFE4F808190E009C082E189
:1013B00090E02EE734E004C080E090E020E030E0F0
:1013C000FA0131832083089580E189BD82E189BDDE
:1013D00009B400FEFDCF8091D8008F7D8093D800A6
:1013E0008091E00082608093E0008091E00081FDC8
:1013F000FCCF0895CF92DF92EF92FF920F931F934D
:10140000CF93DF937C018B01EA010E945C0B811179
:1014100031C0209731F088819981081B190BE80EA3
:10142000F91EC12CD12C0115110519F18091E8008C
:1014300085FD14C08091E8008E778093E8002097A6
:1014400041F0888199818C0D9D1D9983888385E069
:1014500011C00E945C0B882331F30CC0F70181910D
:101460007F018093F10001501109FFEFCF1ADF0ACD
:10147000DACF80E0DF91CF911F910F91FF90EF9035
:10148000DF90CF9008952091D4013091D501261797
:10149000370748F06115710539F42091E8002E777F
:1014A0002093E80001C0B901FC0120E0611571053D
:1014B000B9F18091CD01882309F440C0853009F449
:1014C0003FC08091E80083FD3DC08091E80082FF2D
:1014D00006C08091E80082FF26C080E008958091D8
:1014E000E80080FFE3CF2091F3008091F20090E0CC
:1014F000922B6115710551F08830910538F42191D6
:101500002093F100615071090196F3CF21E0089713
:1015100009F020E08091E8008E778093E800C6CF44
:101520002111C7CFD6CF8091CD01882339F08530E6
:1015300039F08091E80083FFCCCF04C082E00895A9
:1015400083E0089581E008952091D4013091D50180
:101550002617370748F06115710539F42091E80026
:101560002E772093E80001C0B901FC0120E061154D
:101570007105C1F18091CD01882309F441C0853006
:1015800009F440C08091E80083FD3EC08091E800EE
:1015900082FF06C08091E80082FF27C080E00895A6
:1015A0008091E80080FFE3CF2091F3008091F2006A
:1015B00090E0922B6115710559F08830910540F447
:1015C00024912093F1003196615071090196F2CF78
:1015D00021E0089709F020E08091E8008E77809361
:1015E000E800C5CF2111C6CFD5CF8091CD0188238A
:1015F00039F0853039F08091E80083FFCBCF04C00B
:1016000082E0089583E0089581E00895982F97304F
:1016100058F59093E900981739F07091EC002091FB
:10162000ED005091F00003C0242F762F50E021FFF1
:1016300019C03091EB003E7F3093EB003091ED000C
:101640003D7F3093ED003091EB0031603093EB0043
:101650007093EC002093ED005093F0002091EE0089
:1016600027FF07C09F5FD3CF8F708093E90081E091
:10167000089580E008958091CE0187FD05C0809196
:10168000E80080FF0EC012C08091E80082FD05C016
:101690008091CD018111F8CF08958091E8008B777A
:1016A00008C08091CD018111EACF08958091E800B2
:1016B0008E778093E80008958091E4009091E50092
:1016C00045E62091EC0020FF21C02091E80020FD9C
:1016D00021C02091CD01222389F0253089F020916D
:1016E000EB0025FD0FC02091E4003091E5002817A4
:1016F000390739F3415041F0C901E3CF82E0089541
:1017000083E0089581E0089584E008952091E80041
:1017100022FFDFCF80E008950E94FA0B0E94020CA6
:10172000E0EEF0E0808181608083E8EDF0E0808190
:101730008F77808319BCA7EDB0E08C918E7F8C935E
:1017400080818F7E80831092CC0108950F931F9328
:10175000CF93DF930E94FA0B0E94020CC8EDD0E0F9
:1017600088818F77888388818068888388818F7D4E
:10177000888319BC1092CD011092C9011092CB013F
:101780001092CA0100EE10E0F80180818B7F808307
:1017900088818160888342E060E080E00E94060BDF
:1017A000E1EEF0E080818E7F8083E2EEF0E08081E8
:1017B00081608083808188608083F80180818E7F52
:1017C0008083888180618883DF91CF911F910F9101
:1017D0000895E8EDF0E080818F7E8083E7EDF0E012
:1017E00080818160808384E082BF81E08093CC012E
:1017F0000C94A60BE8EDF0E080818E7F8083109240
:10180000E20008951092DA001092E10008951F920C
:101810000F920FB60F9211242F933F934F935F9324
:101820006F937F938F939F93AF93BF93EF93FF93A8
:101830008091E10082FF0BC08091E20082FF07C02F
:101840008091E1008B7F8093E1000E94630E809184
:10185000DA0080FF1FC08091D80080FF1BC08091FC
:10186000DA008E7F8093DA008091D90080FF0DC06E
:1018700080E189BD82E189BD09B400FEFDCF81E030
:101880008093CD010E94790805C019BC1092CD014A
:101890000E9487088091E10080FF19C08091E200DA
:1018A00080FF15C08091E2008E7F8093E2008091DE
:1018B000E20080618093E2008091D8008062809392
:1018C000D80019BC85E08093CD010E948B088091DF
:1018D000E10084FF30C08091E20084FF2CC080E1F1
:1018E00089BD82E189BD09B400FEFDCF8091D80099
:1018F0008F7D8093D8008091E1008F7E8093E100FE
:101900008091E2008F7E8093E2008091E20081600E
:101910008093E2008091C901882311F084E007C020
:101920008091E30087FF02C083E001C081E08093E3
:10193000CD010E948C088091E10083FF29C0809135
:10194000E20083FF25C08091E100877F8093E10062
:1019500082E08093CD011092C9018091E1008E7FD9
:101960008093E1008091E2008E7F8093E20080917D
:10197000E20080618093E20042E060E080E00E944B
:10198000060B8091F00088608093F0000E948A0826
:10199000FF91EF91BF91AF919F918F917F916F9147
:1019A0005F914F913F912F910F900FBE0F901F901D
:1019B00018951F920F920FB60F9211242F933F93F9
:1019C0004F935F936F937F938F939F93AF93BF9347
:1019D000CF93EF93FF93C091E900CF708091EC001B
:1019E0001092E9008091F000877F8093F000789456
:1019F0000E94150D1092E9008091F000886080939C
:101A0000F000C093E900FF91EF91CF91BF91AF91AA
:101A10009F918F917F916F915F914F913F912F9106
:101A20000F900FBE0F901F9018951F93CF93DF93C9
:101A3000CDB7DEB7AA970FB6F894DEBF0FBECDBF05
:101A4000EEECF1E08091F100819321E0E63DF207B8
:101A5000C9F70E949D088091E80083FF1CC1209176
:101A6000CE013091CF01832F90E08A30910508F0AC
:101A700012C1FC01EA5AFF4F0C94481E203881F035
:101A8000223809F008C18091D2018F708093E9005B
:101A90008091EB0085FB882780F91092E90006C051
:101AA0008091CA019091CB01911182609091E800E0
:101AB000977F9093E8008093F1001092F100C5C0E9
:101AC000822F8D7F09F0E7C0222319F0223061F0C8
:101AD000E2C08091D001813009F0DDC0333009F0DF
:101AE00080E08093CB0128C08091D001811124C077
:101AF0002091D2012F7009F4CEC02093E90080918B
:101B0000EB0080FF19C08091EB00333011F480624C
:101B100011C080618093EB0081E090E0022E01C053
:101B2000880F0A94EAF78093EA001092EA00809105
:101B3000EB0088608093EB001092E9008091E80050
:101B4000877F86C02111A7C01091D0011F77809197
:101B5000E3008078812B8093E3008091E800877F09
:101B60008093E8000E943B0B8091E80080FFFCCF4F
:101B70008091E30080688093E300112311F083E0FB
:101B800001C082E08093CD0186C02058223008F049
:101B900082C08091D0019091D1018C3D23E09207C9
:101BA00079F583E08A838AE289834FB7F894DE016E
:101BB000139620E03EE051E2E32FF0E0509357000F
:101BC000E49120FF03C0E295EF703F5FEF708E2F2E
:101BD00090E0EA3010F0C79601C0C0968D939D93B7
:101BE0002F5F243149F74FBF8091E800877F8093B2
:101BF000E8006AE270E0CE0101960E94430A14C038
:101C0000AE014F5F5F4F6091D2010E948B09009738
:101C100009F441C02091E800277F2093E800BC012F
:101C200089819A810E94A40A8091E8008B77809331
:101C3000E80031C0203879F58091E800877F8093F3
:101C4000E8008091C9018093F1008091E8008E77CF
:101C50008093E8000E943B0B1EC021111CC0909194
:101C6000D0019230C0F48091E800877F8093E80033
:101C70009093C9010E943B0B8091C901811104C05E
:101C80008091E30087FF02C084E001C081E080937F
:101C9000CD010E948E088091E80083FF0AC08091E8
:101CA000E800877F8093E8008091EB00806280935A
:101CB000EB00AA960FB6F894DEBF0FBECDBFDF9142
:101CC000CF911F9108950895CF938091CD018823DE
:101CD000B1F08091E9008F709091EC0090FF02C00C
:101CE00090E801C090E0C92FC82B1092E9008091C4
:101CF000E80083FD0E94150DCF70C093E900CF91DD
:101D0000089590936301809362010895E0916201C8
:101D1000F0916301309721F00190F081E02D09945A
:101D200080E00895E0916201F0916301309721F025
:101D30000280F381E02D0994089520916001309193
:101D400061018217930771F09093610180936001A4
:101D5000E0916201F0916301309721F00680F781F4
:101D6000E02D0994089520915E0130915F01821762
:101D7000930771F090935F0180935E01E09162019F
:101D8000F0916301309721F00084F185E02D0994F2
:101D9000089508950C94C90E0E94741A0E94DE06DC
:101DA0000E943F1B0C94B01D5F926F927F928F92A6
:101DB0009F92AF92BF92CF92DF92EF92FF920F93DA
:101DC0001F93CF93DF9300D000D01F92CDB7DEB723
:101DD0000E9421079DE6C92E91E0D92E03E010E074
:101DE000AA24A394B12C502E802F0E949E073C0160
:101DF000F601F290E2906F01E826F926E114F10471
:101E0000A1F40150110978F78FEF89838A831B822F
:101E10000E947D1A8160782F9D838C8349815A812D
:101E20006B818D810E94820F38C08091C20181FD3B
:101E30000E94A7072BE030E04501022E02C0880C6B
:101E4000991C0A94E2F7C4018E219F21892B09F184
:101E500029835A826820792081E0672809F480E08C
:101E60008B830E947D1A8160782F9D838C834981AA
:101E70005A816B818D810E94820FF801EE0FFF1F46
:101E8000EB59FE4F8081918188259925918380832C
:101E900004C02150310980F6B4CF109164010E9432
:101EA000860E1817D1F00E94860E809364010F9061
:101EB0000F900F900F900F90DF91CF911F910F9186
:101EC000FF90EF90DF90CF90BF90AF909F908F905A
:101ED0007F906F905F900C94C8060F900F900F90BA
:101EE0000F900F90DF91CF911F910F91FF90EF9086
:101EF000DF90CF90BF90AF909F908F907F906F902A
:101F00005F900895CF93DF93CDB7DEB72B970FB6D1
:101F1000F894DEBF0FBECDBF4F83588769877A879D
:101F20008B87DE01119686E0FD0111928A95E9F713
:101F300085E0FE01379601900D928A95E1F749817F
:101F40005A816B817C818D819E810E9421162B9606
:101F50000FB6F894DEBF0FBECDBFDF91CF910895CD
:101F6000CF93C82F882309F4C1C0823859F40E9446
:101F7000860E81FDBBC089E30E94FC180E94C61931
:101F800089E30CC0833879F40E94860E80FDAEC0D0
:101F900083E50E94FC180E94C61983E50E943C1943
:101FA000CF910C94C619843859F40E94860E82FD94
:101FB0009DC087E40E94FC180E94C61987E4EECFFA
:101FC0008CEF8C0F813A48F48C2F0E94711D811187
:101FD0008DC08C2F0E94FC18E3CF80E28C0F8830DC
:101FE00048F4C77081E001C0880FCA95EAF70E94E3
:101FF0007D19D6CF8BE58C0F833078F4C53A29F064
:10200000C63A31F482E890E005C081E890E002C071
:1020100083E890E0CF910C949D0E88E58C0F83317E
:1020200008F064C0C83A39F1C93A41F1CA3A49F1F5
:10203000CB3A51F1CC3A59F1CD3A61F1C03B69F15B
:10204000CE3A71F1CF3A79F1C13B81F1C23B89F1CE
:10205000C33B91F1C43B99F1C53BA1F1C63BA9F14A
:10206000C73BB1F1C83BB9F1C93BC1F1CA3BC9F5A6
:102070008AE292E038C082EE90E035C089EE90E0CE
:1020800032C08AEE90E02FC085EB90E02CC086EB4A
:1020900090E029C087EB90E026C08CEC90E023C054
:1020A0008DEC90E020C083E891E01DC08AE891E0CB
:1020B0001AC082E991E017C084E991E014C081E27E
:1020C00092E011C083E292E00EC084E292E00BC085
:1020D00085E292E008C086E292E005C087E292E0E5
:1020E00002C080E090E0CF910C94B30ECF910895A0
:1020F000882309F44BC0823859F40E94860E81FF70
:1021000045C089E30E94FC180E94C61989E30CC0EF
:10211000833871F40E94860E80FF38C083E50E94E8
:10212000FC180E94C61983E50E943C190C94C6193C
:10213000843859F40E94860E82FF28C087E40E94EA
:10214000FC180E94C61987E4EFCF9CEF980F913AD4
:1021500058F390E2980F983050F4877091E001C0E6
:10216000990F8A95EAF7892F0E948319DFCF9BE5A3
:10217000980F933020F480E090E00C949D0E885AE4
:10218000833120F480E090E00C94B30E089588230E
:1021900021F00E947D190C94C6190895882321F01E
:1021A0000E9483190C94C61908958F929F92AF9242
:1021B000BF92CF92DF92EF92FF920F931F93CF9334
:1021C000DF931F92CDB7DEB74C01A62E472FFC013F
:1021D000E580E2948FE0E822F280FF2021F079830D
:1021E0000E949A19498149830E94F51849818823E0
:1021F00081F0FF2071F080E28A0D883050F082E09B
:102200000E94DE180E94F518BB24B394B8264981B9
:1022100001C0B12CE42FE295EF70F0E0E05AFF4FDF
:102220000C94481E842F807F142F1F70882311F078
:102230001295107FFF2089F0112309F48BC180E2F1
:102240008A0D883020F4812F0E947D1903C0812FD0
:102250000E948D190E94C6197DC18A2D0E94781096
:10226000112309F4B4C180E28A0D883020F4812F53
:102270000E94831903C0812F0E9493190E94C619DE
:10228000A6C1242F207F842F8F70203211F08295D9
:10229000807FAA2021F0F1E0AF16B1F021C0FF202D
:1022A00041F0EE2039F191E0E91224C00E94AD190D
:1022B0008EC1EE2021F0E1E0EE1609F488C1898399
:1022C0000E94B019898100C1FF2029F0F5E0FE15B8
:1022D00008F47DC10FC094E09E1508F478C1F4C0E5
:1022E000FF2059F0EE2031F0F401958190FF32C1CA
:1022F0009F7095830E94C7106AC1EE2009F4E4C064
:102300002FC1242F26952695237030E02115310505
:1023100021F02130310561F05AC1FF2021F08A2DD2
:10232000942F937002C080E090E00E949D0E4FC1F8
:10233000FF2021F08A2D942F937002C080E090E05E
:102340000E94B30E44C1842F837009F04EC0F11077
:102350003EC12A2D229526952770220F220F8A2D05
:102360008F70C82ED12CE12CF12C022E04C0CC0C85
:10237000DD1CEE1CFF1C0A94D2F7A4FE10C06FE017
:1023800070E080E090E004C0660F771F881F991FFF
:102390002A95D2F7609570958095909503C060E07E
:1023A00070E0CB01242F26952695237030E0223053
:1023B000310569F02330310589F06C297D298E299A
:1023C0009F292130310571F00E94731700C16C29DB
:1023D0007D298E299F290E948D17F9C00E947317AD
:1023E000C701B6010E945917F2C0FF2019F0842FCF
:1023F000817001C08695882309F4E9C02A2D2295B1
:1024000026952770220F220F8A2D8F70C82ED12C6F
:10241000E12CF12C022E04C0CC0CDD1CEE1CFF1CA8
:102420000A94D2F7A4FE10C06FE070E080E090E064
:1024300004C0660F771F881F991F2A95D2F76095F1
:1024400070958095909503C060E070E0CB01242FDB
:1024500026952695237030E02230310569F023302F
:10246000310589F06C297D298E299F29213031057C
:1024700071F00E944718ABC06C297D298E299F29D5
:102480000E946118A4C00E944718C701B6010E94AB
:102490002D189DC00A2D10E0F801E05EF109E5312C
:1024A000F10508F053C0E059FF4F0C94481E1A2D57
:1024B0001F70842F8F71FF2021F00E94C617812F7B
:1024C00019CF0E94E717812F0E94CE1080C0FF20F5
:1024D00049F0F4E0FE1508F47AC0842F8F710E9451
:1024E0000C1875C085E08E1508F471C0F6CFFF207A
:1024F00039F0842F8F710E94C61769C0FF20C9F37D
:10250000842F8F710E94E71762C0FF2029F0842F6B
:102510008F710E94B1175BC00E94A71758C0FF209F
:1025200051F0142F1F71812F0E94C61763E0812F75
:102530000E94D5184CC081E00E94DE1891E09E15E3
:1025400008F045C082E00E94DE1841C0FF2031F053
:10255000EE2079F28A2D0E94B00F39C0EE2081F270
:102560008A2D0E94781033C04F706A2DC4010E94DA
:10257000AD030E94CE162BC0F11029C0942F9F707E
:10258000492F50E042305105B9F04CF44115510546
:1025900081F041305105D9F40E94D81D18C0433054
:1025A000510569F04430510591F48A2D0E942C1E8A
:1025B0000EC00E94C11D0BC00E94F41D08C00E94E5
:1025C000071E05C04F706A2DC4010E940203BB2084
:1025D000F1F00E94D11880FD1AC0F40112820E940D
:1025E000CB180E94C617C4010E9415130E94CB1875
:1025F0000F90DF91CF911F910F91FF90EF90DF909F
:10260000CF90BF90AF909F908F900C94E7170F9052
:10261000DF91CF911F910F91FF90EF90DF90CF90BE
:10262000BF90AF909F908F9008950F931F93CF937B
:10263000DF93EC01288139818B819C81892B31F0DA
:102640003F3F11F080E003C02F3FE1F781E08111AF
:1026500013C0CE010E941503882371F0688179812F
:102660008A810E94C7188C010E947B180E944E1715
:10267000B801CE010E94D510DF91CF911F910F912B
:1026800008950E949A190E94AA190E946F190E9427
:10269000C61980E090E00E949D0E80E090E00C94CE
:1026A000B30E0E948A190C9441130E94BC18292F62
:1026B00022952F7030E02C3031054CF42A30310552
:1026C0006CF42250310922303105B0F407C02C30AF
:1026D000310571F02F30310559F00EC0803F31F0D7
:1026E00018F4803E48F402C0843F31F481E008953C
:1026F00093FB882780F9089580E00895CF93DF93B6
:1027000000D000D01F92CDB7DEB70F900F900F9082
:102710000F900F90DF91CF910895CF93DF9300D06A
:1027200000D000D0CDB7DEB726960FB6F894DEBF46
:102730000FBECDBFDF91CF9108951F93CF93DF934D
:10274000C0916D0116E080916E01C81799F0D0E03C
:102750001C9FF0011D9FF00D1124E159FE4F408197
:10276000518162817381848195810E948D132196AC
:10277000C770E9CFDF91CF911F91089540919F01DC
:102780005091A0016091A1017091A2018091A301DB
:102790009091A4010C948D13CF938091A401829504
:1027A0008F7009F05FC08091A101882309F45AC09D
:1027B00020916D01A0916E0160919F017091A00127
:1027C0008091A2019091A30131E06F3F09F030E0C8
:1027D000B32FC6E02A1709F445C0009721F07F3FC8
:1027E00021F44B2F03C041E001C040E030E040FD48
:1027F00035C0C29FF001C39FF00D1124E159FE4F77
:10280000418174132BC04081641328C0428141115F
:1028100025C0438154814817590710F4415051098C
:10282000481B590B483C5105C8F48091A4018F7096
:1028300080618093A40186E0829FF001839FF00D68
:102840001124EC58FE4F80818F70806180838FE966
:1028500091E00E941513CF910C949D132F5F3F4F71
:102860002770B8CFCF910895CF92DF92EF92FF9269
:102870000F931F93CF93DF93CDB7DEB762970FB659
:10288000F894DEBF0FBECDBF8C0185E0F801DE01FC
:102890001D9601900D928A95E1F7D8014C91119601
:1028A0005C91119712966C9112971396ED90FC9093
:1028B000149770919F01E091A0012091A2013091A5
:1028C000A3012115310531F0EF3F31F481E07F3F65
:1028D00019F403C081E001C080E0B82FB170CB2EA5
:1028E00080FD6CC1D090A101DD2009F4F5C0F0910C
:1028F000A401E216F30638F0C701821B930B883C53
:10290000910548F09BC0209530952E0D3F1D283C29
:10291000310508F093C08F2F807F09F052C0E51376
:1029200014C0741312C0D62E61110FC0FF70F06175
:10293000F093A4010E94BE138FE991E00E94151349
:102940008091A401F80185836CC1EF2831F05F3FCD
:1029500031F481E04F3F19F403C081E001C080E011
:1029600080FD03C081E0862701C080E0F82FF17070
:10297000FF2E80FF1CC080916D0120916E0136E01A
:10298000821709F428C190E0389FF001399FF00DBB
:102990001124E159FE4F7181571306C0708147130E
:1029A00003C07281671303C001968770E9CFD62EEA
:1029B000662309F436C18091A40181608093A4014B
:1029C00053C0E51308C0741306C0611104C0D801D8
:1029D0001596FC93AEC04D875E878D859E856A8B6C
:1029E0000E9455136A89882329F1D62E662311F196
:1029F0002091A401822F82958F7090E002970CF4B1
:102A000060C080919F019091A00198878F83198663
:102A1000FB86EA862C87CE01079651C0E51731F177
:102A20004D875E878D859E856A8B0E9455136A89C6
:102A300081112EC0C8010E941513A4C08F2F807F62
:102A400069F77E2DF98AE88A89890E947E138FE9C9
:102A500091E00E941513EFE9F1E086E0DF011D929D
:102A60008A95E9F70E94BE13D12CDBC07413D8CF2E
:102A70006111D6CFD8011596FC93C8010E94151399
:102A8000EFE9F1E086E0DF011D928A95E9F7C9C020
:102A9000D62E662379F22091A401822F82958F7021
:102AA00090E0029774F080919F019091A0019A8329
:102AB00089831B82FD82EC822E83CE0101960E94C7
:102AC000151386E0F801AFE9B1E001900D928A9507
:102AD000E1F70E94CC136FC0E216F30628F0C7019D
:102AE000821B930B9C0104C0209530952E0D3F1D39
:102AF000283C310508F052C0D62E662309F49ACF3F
:102B0000E5132CC074132AC08091A40180FD1DC060
:102B1000982F92959F70C9F0D80115968C931597B0
:102B20009F3039F09F5F9295907F8F70892B15961B
:102B30008C93C8010E94151386E0F801AFE9B1E05B
:102B400001900D928A95E1F736C086E0F801AFE971
:102B5000B1E001900D928A95E1F763C04D875E87E1
:102B60008D859E850E945513882379F086E0F801B3
:102B7000AFE9B1E001900D928A95E1F70E94CC1384
:102B80000E94BE13DD24D3944CC08091A4018160C7
:102B90008093A401C8010E94151343C07E2DF98AB9
:102BA000E88A89890E947E13EFE9F1E086E0DF017F
:102BB0001D928A95E9F70E94BE1333C0662309F47B
:102BC00039CF4D875E878D859E850E94551388235A
:102BD00009F430CFCBCF4D875E878D859E850E94CF
:102BE000BC18292F22952F7030E0223031052CF4AB
:102BF0009F7041F0811106C00CC0243031052CF4C7
:102C00009F7049F4805E883020F0C8010E9415133F
:102C1000CF2CDC2C06C0D80115969C91907F91F7A3
:102C2000F8CF8D2D62960FB6F894DEBF0FBECDBFE4
:102C3000DF91CF911F910F91FF90EF90DF90CF9098
:102C400008951F93CF93DF93CDB7DEB72C970FB6C0
:102C5000F894DEBF0FBECDBF4F83588769877A8750
:102C60008B879C87CE0107960E9434148823C1F07D
:102C70002F8138858A859B85892B31F03F3F11F064
:102C800080E003C02F3FE1F781E0811147C04F8111
:102C9000588569857A858B859C850E948D133EC0F9
:102CA00086E0FE013796DE01119601900D928A951D
:102CB000E1F7FF81E8854A855B854115510531F0D3
:102CC000EF3F31F481E0FF3F19F403C081E001C020
:102CD00080E080FD23C020916E0130E0C9010196A3
:102CE0008770992760916D0170E086179707F1F161
:102CF000F983EA835D834C8396E0929FD001939F92
:102D0000B00D1124A159BE4FFE01319601900D92D4
:102D10009A95E1F780936E010E949D1316E08091D1
:102D20006D0190916E01891779F1189FC0011124EE
:102D300081599E4F0E943414882331F1E0916D0136
:102D40001E9FF0011124E159FE4F408151816281A3
:102D50007381848195810E948D1380916D0190E033
:102D600001968770992780936D01D9CF0E945113E6
:102D700010926E0110926D01EFE9F1E086E0DF0143
:102D80001D928A95E9F7CACF2C960FB6F894DEBF4C
:102D90000FBECDBFDF91CF911F910895EF92FF92AB
:102DA0000F931F93CF93DF93FC01009709F46FC03B
:102DB000F12CEE24E394EF0121968491843740F4C2
:102DC000843008F055C0813081F0823021F15FC03D
:102DD000853709F447C0C0F19CE7980F903708F099
:102DE00056C08F770E94781045C08F010E5F1F4F2D
:102DF000FE01849190E2980F983050F48770FE2D78
:102E000001C0FF0F8A95EAF78F2F0E949D1915C008
:102E10000E94B00F14C08F010E5F1F4FFE018491FE
:102E200090E2980F983068F48770FE2D01C0FF0F74
:102E30008A95EAF78F2F0E94A3190E94C619E8010C
:102E400019C00E947810FBCFCF010296FE01C491F9
:102E5000CC2361F0EFE9FFE03197F1F700C000000B
:102E6000C150F6CFCF010296FE01F490EC0102C0F2
:102E70000E94B00F8F2D882341F0EFE9FFE03197DA
:102E8000F1F700C000008150F6CFFE0194CFDF9132
:102E9000CF911F910F91FF90EF9008950895609347
:102EA000A9017093AA018093AB019093AC010C949B
:102EB00041130F931F930091A9011091AA01209132
:102EC000AB013091AC01062B172B282B392B00932B
:102ED000A9011093AA012093AB013093AC011F917B
:102EE0000F910C9441130F931F930091A90110911E
:102EF000AA012091AB013091AC01062317232823AE
:102F000039230093A9011093AA012093AB013093B8
:102F1000AC011F910F910C9441130F931F930091DB
:102F2000A9011091AA012091AB013091AC010627B3
:102F30001727282739270093A9011093AA01209366
:102F4000AB013093AC011F910F910C94411310927F
:102F5000A5011092A6011092A7011092A8010C944D
:102F6000411341E050E060E070E004C0440F551FA1
:102F7000661F771F8A95D2F74093A5015093A6014B
:102F80006093A7017093A8010C94411341E050E0B5
:102F900060E070E004C0440F551F661F771F8A95DC
:102FA000D2F78091A5019091A601A091A701B091BF
:102FB000A801842B952BA62BB72B8093A50190936A
:102FC000A601A093A701B093A8010C94411341E07E
:102FD00050E060E070E004C0440F551F661F771F8B
:102FE0008A95D2F740955095609570958091A5018E
:102FF0009091A601A091A701B091A80184239523E7
:10300000A623B7238093A5019093A601A093A701BF
:10301000B093A8010C94411341E050E060E070E0EF
:1030200004C0440F551F661F771F8A95D2F7809101
:10303000A5019091A601A091A701B091A8018427B4
:103040009527A627B7278093A5019093A601A09363
:10305000A701B093A8010C9441130F931F93009103
:10306000A5011091A6012091A7013091A801062B7E
:10307000172B282B392B0093A5011093A601209321
:10308000A7013093A8011F910F910C9441130F9346
:103090001F930091A5011091A6012091A7013091E5
:1030A000A80106231723282339230093A501109391
:1030B000A6012093A7013093A8011F910F910C94B2
:1030C00041130F931F930091A5011091A601209128
:1030D000A7013091A8010627172728273927009331
:1030E000A5011093A6012093A7013093A8011F9179
:1030F0000F910C9441130895CF92DF92EF92FF92BB
:103100000F931F93CF93DF93EC01C090A901D09050
:10311000AA01E090AB01F090AC018091A5019091E3
:10312000A601A091A701B091A801C82AD92AEA2A2C
:10313000FB2A0FE110E0B701A601002E04C076952E
:103140006795579547950A94D2F740FD05C0015001
:10315000110988F780E007C0BE01802F0E942D066C
:103160000197A9F3802FDF91CF911F910F91FF90CD
:10317000EF90DF90CF900895CF93DF93EC010E9402
:103180007C18BE010E942D06DF91CF910895CB01DE
:103190000E94BC1808958091AD018595859585950F
:1031A00008958091AD018770089598E0899F9001FE
:1031B0001124622B6093AD010C94C6174091AD01B0
:1031C000809584238093AD01982F977069F450E027
:1031D000282F332727FD30954217530729F085956F
:1031E000859585950C94E71708959091AD0197709A
:1031F00081E009F480E0089590910B019923D9F0C2
:1032000090910C019923B9F0982F969596959695E3
:103210009F3088F5E0910D01F0910E01E90FF11D4D
:10322000877021E030E001C0220F8A95EAF78181A2
:10323000822B8183089540910D0150910E0120E071
:1032400030E09FEFFA01E20FF31F6281681799F0F7
:103250009F3F19F4611101C0922F2F5F3F4F2E3015
:10326000310581F79F3F39F0FA01E90FF11D97FD14
:10327000FA9582830895089590910B019923E1F0C6
:1032800090910C019923C1F0982F9695969596955B
:103290009F3020F5E0910D01F0910E01E90FF11D35
:1032A000877021E030E001C0220F8A95EAF720956F
:1032B000818128232183089540910D0150910E01B1
:1032C00020E030E0FA01E20FF31F9281981301C071
:1032D00012822F5F3F4F2E303105A1F7089581E014
:1032E00090E0E0910D01F0910E01E80FF91F1082BE
:1032F000019680319105A9F708959091C101982B0D
:103300009093C101089580959091C1019823909365
:10331000C10108951092C10108959091C001982BA8
:103320009093C001089580959091C0019823909347
:10333000C00108951092C00108959091BF01982B8B
:103340009093BF01089580959091BF019823909329
:10335000BF0108951092BF0108958093AE010895B2
:103360001092AE01089540910D0150910E0120E0A0
:1033700030E080E0FA01E20FF31F918191118F5F3D
:103380002F5F3F4F2F303105A9F70895E0910D01D0
:10339000F0910E018091C1018083E0910D01F091C7
:1033A0000E0180819091C001892B8083E0910D01F5
:1033B000F0910E0180819091BF01892B80839091C3
:1033C000AE01992361F0E0910D01F0910E01808131
:1033D000892B80830E94B31981111092AE018091D4
:1033E0000D0190910E010C94920E40E0009739F07F
:1033F0009C0121503109822393234F5FF7CF842F03
:1034000008958091CD01843039F11092C30120E4F8
:1034100088E190E00FB6F894A895809360000FBE05
:103420002093600080E00E94FF0280E00E94C806B6
:1034300083B7817F846083BF83B7816083BF7894C3
:10344000889583B78E7F83BF88E10FB6F894809309
:103450006000109260000FBE08950895089580E006
:103460000E94FF020E942D1A0E9421070E942E1A1C
:103470000E94A80791E0811101C090E0892F089572
:103480000E94511380E00E94FF020E94B01D0E9422
:10349000860E0C94C8061F920F920FB60F9211243D
:1034A0008F939F93AF93BF938091C301811113C0FA
:1034B0008091C4019091C501A091C601B091C7014E
:1034C0004196A11DB11D8093C4019093C501A093A5
:1034D000C601B093C701BF91AF919F918F910F909B
:1034E0000FBE0F901F90189582E084BD93E095BDAC
:1034F0009AEF97BD80936E0008952FB7F89480914E
:10350000C4019091C501A091C601B091C7012FBF20
:103510000895CF92DF92EF92FF920F931F932FB7F0
:10352000F8944091C4015091C5016091C601709119
:10353000C7012FBF6A017B01EE24FF248C0120E02C
:1035400030E0C016D106E206F30610F441505109EE
:10355000481B590BCA011F910F91FF90EF90DF900C
:10356000CF9008951F920F920FB60F9211248F9350
:103570009F93AF93BF938091C4019091C501A09197
:10358000C601B091C7010196A11DB11D8093C40170
:103590009093C501A093C601B093C701BF91AF91AD
:1035A0009F918F910F900FBE0F901F9018950E94C2
:1035B0008C0BF8942FEF87EA91E6215080409040E1
:1035C000E1F700C0000087E090EBDC018093D801B8
:1035D0009093D901A093DA01B093DB012CE088E14C
:1035E00090E00FB6F894A895809360000FBE2093EA
:1035F0006000FFCFCF92DF92EF92FF920F931F9365
:10360000CF93DF93C82E83E0D82E01E010E08D2DFC
:103610000E949E077C01CBE0D0E098010C2E02C0F6
:10362000220F331F0A94E2F72E213F21232B49F06A
:103630006C2F7D2D80E00E94B003C81202C081E093
:1036400007C0219750F7DA948FEFD812E0CF80E0CF
:10365000DF91CF911F910F91FF90EF90DF90CF906E
:103660000895CF93C82F8CE20E94FA1A882321F084
:103670008C2FCF910C94FA1A80E0CF910895CF93BC
:103680000E94891C811102C00E946A1CC5E6C150BB
:1036900049F00E9421078FE39CE90197F1F700C0F0
:1036A0000000F5CF89E20E94311B811111C18AE22D
:1036B0000E94311B81110E946A1C85E00E94311B0F
:1036C00081110E94D71A0E94941C8093C20187E046
:1036D0000E94311B882399F18BE10E94311B8823C2
:1036E00051F09091C20191FB882780F921E0822757
:1036F00080FB91F922C08EE00E94311B882351F09B
:103700009091C20192FB882780F921E0822780FBFB
:1037100092F913C080E10E94311B9091C20188236D
:1037200041F093FB882780F921E0822780FB93F901
:1037300004C0892F809580FB90F99093C2018091FD
:10374000C2010E94981C0E94A61C8093D60180EEA4
:103750000E94311B882341F08091D601982F9095CB
:1037600090FB80F98093D60189E30E94311B882366
:1037700059F09091D60191FB882780F921E08227AA
:1037800080FB91F99093D60182EE0E94311B882331
:1037900059F09091D60192FB882780F921E0822789
:1037A00080FB92F99093D60186EE0E94311B88230C
:1037B00059F09091D60193FB882780F921E0822768
:1037C00080FB93F99093D60183EE0E94311B8823EE
:1037D00059F09091D60194FB882780F921E0822747
:1037E00080FB94F99093D60185E30E94311B8823D6
:1037F00059F09091D60195FB882780F921E0822726
:1038000080FB95F99093D60181E30E94311B8823B8
:1038100059F09091D60196FB882780F921E0822704
:1038200080FB96F99093D60181E10E94311B882399
:1038300059F09091D60197FB882780F921E08227E3
:1038400080FB97F99093D6018091D6010E94AA1C23
:103850008091D60187FB882780F980930C0187E24D
:103860000E94311BC82F8EE10E94311B8111C26062
:103870008FE10E94311B8111C46080E20E94311BE4
:103880008111C86081E20E94311B8111C06182E216
:103890000E94311B8111C06283E20E94311B8111A1
:1038A000C06484E20E94311B882311F0C06802C00A
:1038B000CC2329F08C2F0E94A11C6C2F03C00E94E6
:1038C0009D1C682F70E080E090E0CF910C944F1722
:1038D000CF9108956DEE7EEF80E090E00E946E1E25
:1038E00060E082E090E00E945C1E60E083E090E097
:1038F0000E945C1E60E084E090E00E945C1E60E03C
:1039000085E090E00E945C1E60E086E090E00C9410
:103910005C1E80E090E00E94561E21E08D3E9E4F8E
:1039200009F020E0822F089582E090E00C944E1E72
:10393000682F82E090E00C945C1E83E090E00C9491
:103940004E1E682F83E090E00C945C1E84E090E0B3
:103950000C944E1E682F84E090E00C945C1E86E070
:1039600090E00C944E1E682F86E090E00C945C1E54
:103970008B3109F46AC008F58E3009F470C070F418
:10398000873009F452C018F48630B9F134C0883059
:1039900009F4A1C08B3009F49EC02DC0813109F417
:1039A00079C020F4803109F464C025C0863109F45F
:1039B00092C0893109F48FC01EC0853309F483C0D9
:1039C00060F4873209F47FC020F48E3108F06DC0B6
:1039D00012C0893209F477C00EC0833438F48A33B8
:1039E00008F061C0883309F476C005C0833409F457
:1039F0006AC0883461F080E008958091C201817FBF
:103A00008E7F8093C20181E08093C80108950E9457
:103A100051132FEF83ED90E3215080409040E1F768
:103A200000C000000E94D71A56C09091C201892F91
:103A30008095817080FB90F919F09660986027C09E
:103A4000997F977F9093C20146C09091C20191FBEC
:103A5000882780F921E0822780FB91F913C090919B
:103A6000C20192FB882780F921E0822780FB92F92E
:103A700009C09091C20193FB882780F921E0822739
:103A800080FB93F99093C201882329F19160909370
:103A9000C20108950E94511380910C0191E0892781
:103AA00080930C0118C027EC01C023EE280F61E0C1
:103AB00070E080E090E004C0660F771F881F991FB8
:103AC0002A95D2F704C061E070E080E090E00E94A7
:103AD0004F170E94511381E0089580E0089580E01F
:103AE0000895CF93C82F8091C801882319F08130A1
:103AF00049F02EC0E0910D01F0910E0180818232DB
:103B000049F507C0E0910D01F0910E0180818232EC
:103B100049F48C2F0E946D1D811117C08C2F0E94BB
:103B2000B81C14C08C2F0E946F1D81110EC0C431AF
:103B300049F018F4CB3049F00FC0C93219F0C8333E
:103B400021F00AC01092C80107C081E0817006C050
:103B50001092C80180E002C080E0F8CFCF910895B4
:103B60000E94891C811102C00E946A1C0E94AF1C25
:103B70008093D70180FF02C0869501C080E00C943D
:103B8000FF028091D701982F9695292F30E0283099
:103B900031054CF49F5F990F8170892B8160809370
:103BA000D7010E94B31C8091D70186950C94FF0227
:103BB0008091D701982F969591F09158990F817027
:103BC000892B8093D7018E7F91E009F490E080915A
:103BD000D70190FB80F98093D7010E94B31C80919C
:103BE000D70186950C94FF028091D701982F90956C
:103BF00090FB80F98093D7010E94B31C8091D7017C
:103C000080FF02C0869501C080E00C94FF023091D5
:103C1000D701232F26952F5F2F77822F90E03170C9
:103C200009972CF4220F232B2093D70102C0309345
:103C3000D7018091D7018E7F91E009F490E08091C7
:103C4000D70190FB80F98093D7010E94B31C80912B
:103C5000D70186950C94FF022091D701922F96955B
:103C60009827990F822F8170892B8093D7018E7F9F
:103C700091E009F490E08091D70190FB80F9809366
:103C8000D7010E94B31C8091D70186950C94FF0246
:103C9000EE0FFF1F0590F491E02D0994F999FECFE6
:103CA00092BD81BDF89A992780B50895A8E1B0E04A
:103CB00042E050E00C94761E262FF999FECF92BD7B
:103CC00081BDF89A019700B4021639F01FBA20BDE1
:103CD0000FB6F894FA9AF99A0FBE08950196272F15
:103CE0000E945D1E0C945C1EDC01CB01FC01F99965
:103CF000FECF06C0F2BDE1BDF89A319600B40D9238
:0C3D000041505040B8F70895F894FFCFF0
:103D0C00FFBC072708BF07F407C0070101AF012953
:103D1C0039596943636F5F4F1F0F3379537F493FA5
:0E3D2C003639FF04C90490043C0455046E04AB
:00000001FF
